:1000000009C1000038C1000036C1000034C1000041
:1000100032C1000030C100002EC100002CC1000020
:100020002AC1000028C1000026C1000024C1000030
:1000300022C1000020C100001EC100001CC1000040
:100040001AC1000018C1000016C1000014C1000050
:1000500012C1000010C100000EC10000B9C40000B0
:100060000AC100000C9456080C948C0804C10000CE
:1000700002C1000000C10000FEC00000FCC0000082
:10008000FAC00000F8C00000F6C00000F4C0000094
:100090000C9401090C943709EEC00000ECC000007C
:1000A000EAC00000E8C00000E6C00000E4C00000B4
:1000B000E2C00000E0C00000DEC00000DCC00000C4
:1000C000DAC00000D8C00000D6C00000D4C00000D4
:1000D000D2C00000D0C00000CEC00000CCC00000E4
:1000E000CAC000001D0620060F0613061906570693
:1000F000240628062E06320636063C06400644062E
:1001000057064A064E06520600000A0B02090C0D5D
:100110000E080703040100000000000000000000BA
:1001200000000000000000000000000000000000CF
:10013000000000001211100000000000000000008C
:1001400000000000000000000000000000000102AC
:1001500010202008081020401020408002010201D9
:100160000804020101020408102040808040201091
:1001700008040201800402018040201008040201EA
:100180000804020101020408102040800102040852
:10019000102040800505050507050808080802022B
:1001A00002020A0A08080404040401010101010111
:1001B00001010303030303030303040707070C0CF4
:1001C0000C0C0C0C0C0C02020202060606060606BB
:1001D00006060B0B0B0B0B0B0B0B00002200250074
:1001E00028002B002E003100340002010000050120
:1001F00008010B0100002100240027002A002D0027
:100200003000330001010000040107010A014C0223
:10021000BE08690911241FBECFEFD1E2DEBFCDBFFA
:1002200000E00CBF12E0A0E0B2E0ECE6F9E100E093
:100230000BBF02C007900D92A43AB107D9F725E091
:10024000A4EAB2E001C01D92AE37B207E1F712E0B6
:10025000C4E1D2E000E006C022970109FE010BBF15
:100260000E94B00CCE30D10780E00807A9F70E94A9
:10027000AD090C94B40CC4CEEF92FF920F931F9370
:10028000CF93DF938C017B01EC01CE01801B910B9E
:100290008E159F0574F4699140E150E084E494E088
:1002A0000E944F0A64E272E084E494E00E94F5093F
:1002B000ECCF6AE472E084E494E0DF91CF911F9187
:1002C0000F91FF90EF900C94F509EF92FF920F932E
:1002D0001F93CF93DF9326E2289FF001299FF00D13
:1002E0001124E255FD4F7F018AE0E80EF11C8F01D9
:1002F000065E1F4FC185CD5FD0E08689978981302A
:10030000910571F0029729F566E072E084E494E0CB
:100310000E94F509BE01C701AFDF6EE072E00CC0BC
:1003200066E172E084E494E00E94F50962E070E026
:10033000C701A2DF6EE172E084E494E00E94F50957
:10034000BE01C801DF91CF911F910F91FF90EF90F7
:1003500093CFDF91CF911F910F91FF90EF90089570
:100360000F93CF93DF9340ED57E060E070E084E0BF
:1003700094E0C7D020E032EC41E050E064E474E067
:1003800084E094E0D0D084E094E0B9D066E272E0FA
:1003900080913504909136040E94F5096AE070E07E
:1003A00080E090E08ED341E060E084E094E020D1F2
:1003B00004E024E130E042E050E06BE08EEA92E0BD
:1003C00085D103E024E130E041E050E06CE084EDD1
:1003D00092E07CD104E02CE330E040E050E060E0CB
:1003E00086E493E073D124E130E042E050E06BE03A
:1003F0008AEF92E06BD103E024E130E041E050E08D
:100400006CE080E293E062D104E02CE330E040E075
:1004100050E060E086E493E059D1CEEAD2E08E89E4
:100420009F89029729F444E068E372E0CE01A1D1EC
:10043000CE0166D1CE0191D1A69683E0C239D8070C
:1004400071F726E040E052EC61E070E084E494E073
:10045000ABD540E054EC62E276E484EA92E0DF91CE
:10046000CF910F9197C10F931F93CF93DF930EEA14
:1004700012E0C0E0D0E0B80184EA92E026D2CE01DA
:1004800024DF21960A5D1F4FC630D105A1F7DF9109
:10049000CF911F910F910895CF93DF93CEEAD2E0D1
:1004A000CE0110D1A69684E0C430D807C9F7DF91F9
:1004B000CF9108950F931F93CF93DF93EC016623A1
:1004C00051F0D0D269837A838B839C83DF91CF9163
:1004D0001F910F910895C6D209811A812B813C8109
:1004E000601B710B820B930B6132710581059105C5
:1004F00040F763E070E080E090E0E3D2ECCF60E0B2
:10050000D9CFFC0113AA14AA15AA16AA1182128225
:1005100013821482411551056105710519F0CB0153
:10052000BA01CFC20895FB01BA01A901DC01D2963C
:10053000FC93EE93D19726E0CF0136C51F93CF935E
:10054000DF93EC01162F6CE372E089A99AA94DD7CD
:100550004AE050E0612F89A99AA9A1D763E472E02B
:1005600089A99AA942D762E370E080E090E0DF9128
:10057000CF911F91A6C21F93CF93DF93EC01162F4B
:100580008D81882381F189A99AA9DC01ED91FC91E3
:100590000480F581E02D1995892BA9F307C0263732
:1005A000310511F12835310509F41D8289A99AA96F
:1005B000DC01ED91FC910480F581E02D1995181670
:1005C00019068CF489A99AA9DC01ED91FC910680A9
:1005D000F781E02D19959C01332723363105F9F673
:1005E000612FCE01ABDF83E6DF91CF911F9108959C
:1005F0000F931F93CF93DF931F92CDB7DEB78C017C
:10060000662341F081E0F801858360E0C8014983F9
:10061000B2DF4981F80145830F90DF91CF911F919F
:100620000F910895682F70E084FB442740F950E053
:10063000282F217030E0422753279B0135952795BD
:100640003595279575956795262737272170332788
:100650004217530709F08064482F50E09A0193E055
:10066000359527959A95E1F7BA01759567952627EF
:100670003727BA01F4E075956795FA95E1F72627D3
:1006800037272170332785FBEE27E0F9F0E02E179E
:100690003F0709F480680895FC0120E030E070E035
:1006A000AF01481B590B461757074CF44191240FD3
:1006B000311D30FFF5CF2F5F3F4F3327F1CF822F12
:1006C00080950895FC011186108208950F93FC0116
:1006D0006083578B468B318F208F01870F91089550
:1006E000CF93DF93EC0185E58A8788819BDF8B8739
:1006F000DF91CF910895FC0161856F5F0B96CCCFA0
:100700000F931F93CF93DF93EC018E899F898130E4
:100710009105C1F00297E1F4CE01E2DF098510E016
:1007200080E090E0801791073CF4FE01E80FF91F8C
:10073000218124870196F6CFCE01DDDFC00FD11FC6
:100740008C8706C0CE01DF91CF911F910F91C8CF4A
:10075000DF91CF911F910F91089520E030E0FC01CF
:10076000E20FF31F128E2F5F3F4F2C303105B9F788
:1007700008954770FC014187DC01FB0150E01196B0
:10078000CF01861B970B841795071CF481918C93DE
:10079000F6CF0895CF92DF92EF92FF92CF93DF933F
:1007A000EC016A017B0120E030E744E156E4C70137
:1007B000B6010E94210C181664F520E038EC46E9D9
:1007C00056E4C701B6012BD787FF23C0C982DA825E
:1007D000EB82FC82A701960160E074E284E799E471
:1007E00022D76D837E838F839887C701B60188D710
:1007F000AB01BC0126E081EE94E0D6D381E0888392
:1008000082E18987DF91CF91FF90EF90DF90CF90C9
:1008100008951D821E821F821886188281EE94E040
:10082000DF91CF91FF90EF90DF90CF901DC4CF92DA
:10083000DF92EF92FF92CF93DF93EC0188818823C0
:1008400009F43CC020E030E040E651E46D817E8157
:100850008F819885FAD720E030E040E05FE37BD6D7
:100860004AD76B017C0181EE94E0FED361E089857B
:100870001FD260E0898555D2C6015AD161E08985D1
:1008800050D220E030E040E05FE36D817E818F81D7
:10089000988561D635D7CB014BD169817A818B811F
:1008A0009C812ED7AB01BC0126E081EE94E0DF9164
:1008B000CF91FF90EF90DF90CF9076C3DF91CF91F3
:1008C000FF90EF90DF90CF900895CF92DF92EF925C
:1008D000FF920F931F93CF93DF938C01EB018E89CF
:1008E0009F8981309105E1F0029709F043C0BAD0A9
:1008F0006B017C01C8019BDF488D598D662757FD30
:100900006095762F81EE94E0FCD5E091E104F091C2
:10091000E20449854D5F50E00280F381E02D17C06D
:10092000A1D06B017C01C80182DF488D598D6627FB
:1009300057FD6095762F81EE94E0E3D5E091E104D8
:10094000F091E2040280F381E02D42E050E0BE012C
:10095000665F7F4F81EE94E01995CE01FEDE4985FA
:100960004D5F50E0BE01665E7F4F81EE94E0CFD5D3
:1009700079D003C077D06B017C01AB01BC014C196D
:100980005D096E097F09888D998DAA2797FDA0952D
:10099000BA2F84179507A607B70768F08C019D0149
:1009A000041B150B260B370BC901B80105301105C7
:1009B0002105310520F465E070E080E090E0DF91F2
:1009C000CF911F910F91FF90EF90DF90CF9079C062
:1009D0001F920F920FB60F9211242F933F938F9374
:1009E0009F93AF93BF9380913C0490913D04A0915D
:1009F0003E04B0913F0430913B0423E0230F2D3798
:100A000020F40196A11DB11D05C026E8230F029612
:100A1000A11DB11D20933B0480933C0490933D04A1
:100A2000A0933E04B0933F04809140049091410410
:100A3000A0914204B09143040196A11DB11D809381
:100A4000400490934104A0934204B0934304BF91A7
:100A5000AF919F918F913F912F910F900FBE0F906B
:100A60001F9018952FB7F89460913C0470913D0445
:100A700080913E0490913F042FBF08953FB7F894B2
:100A80008091400490914104A0914204B0914304AC
:100A900026B5A89B05C02F3F19F00196A11DB11DD9
:100AA0003FBF6627782F892F9A2F620F711D811DF6
:100AB000911D42E0660F771F881F991F4A95D1F755
:100AC00008958F929F92AF92BF92CF92DF92EF9252
:100AD000FF926B017C01D2DF4B015C01C114D10498
:100AE000E104F104E1F035D5C9DF681979098A0913
:100AF0009B09683E73408105910580F321E0C21A8D
:100B0000D108E108F10888EE880E83E0981EA11C48
:100B1000B11CC114D104E104F10431F7DFCFFF901F
:100B2000EF90DF90CF90BF90AF909F908F900895FF
:100B30008230910538F0880F991F880F991F05970B
:100B40000197F1F70895789484B5826084BD84B5E7
:100B5000816084BD85B5826085BD85B5816085BDB8
:100B6000EEE6F0E0808181608083E1E8F0E01082D1
:100B7000808182608083808181608083E0E8F0E012
:100B8000808181608083E1EBF0E0808184608083FC
:100B9000E0EBF0E0808181608083E1E9F0E080813A
:100BA00082608083808181608083E0E9F0E08081E1
:100BB00081608083E1EAF0E08081826080838081CF
:100BC00081608083E0EAF0E0808181608083E1E2FF
:100BD000F1E0808182608083808181608083E0E2B7
:100BE000F1E0808181608083EAE7F0E080818460C9
:100BF0008083808182608083808181608083808126
:100C0000806880831092C100089590E0FC013197C4
:100C1000E231F10508F04BC0EE58FF4F9BC68091C2
:100C200080008F7703C0809180008F7D809380004B
:100C3000089580918000877FF9CF84B58F7702C0B7
:100C400084B58F7D84BD08958091B0008F7703C0F7
:100C50008091B0008F7D8093B000089580919000C6
:100C60008F7707C0809190008F7D03C080919000A6
:100C7000877F8093900008958091A0008F7707C0B0
:100C80008091A0008F7D03C08091A000877F80931A
:100C9000A0000895809120018F7707C080912001E6
:100CA0008F7D03C080912001877F8093200108956C
:100CB000CF93DF9390E0FC01E25BFE4F2491FC01B7
:100CC000EC56FE4F8491882349F190E0880F991FDC
:100CD000FC01EC50FE4FA591B49186529E4FFC0151
:100CE000C591D4919FB7611108C0F8948C9120955B
:100CF00082238C93888182230AC0623051F4F89455
:100D00008C91322F309583238C938881822B88831A
:100D100004C0F8948C91822B8C939FBFDF91CF916C
:100D200008950F931F93CF93DF931F92CDB7DEB734
:100D3000282F30E0F901E85FFE4F8491F901E25B72
:100D4000FE4F1491F901EC56FE4F04910023C1F0BF
:100D5000882319F0698359DF6981E02FF0E0EE0FF5
:100D6000FF1FE652FE4FA591B4919FB7F8948C9166
:100D7000611103C01095812301C0812B8C939FBF0B
:100D80000F90DF91CF911F910F910895FC01818DFC
:100D9000228D90E0805C9F4F821B91098F73992771
:100DA0000895FC01918D828D981731F0828DE80FA6
:100DB000F11D858D90E008958FEF9FEF0895FC0160
:100DC000918D828D981761F0828DDF01A80FB11D82
:100DD0005D968C91928D9F5F9F73928F90E00895A6
:100DE0008FEF9FEF089585EB98E0892B39F080E035
:100DF00090E0892B19F0B9D1811124C080E699E0E7
:100E0000892B39F080E090E0892B19F059D28111BB
:100E10001CC080E090E0892B41F080E090E0892BBD
:100E200021F00E940000811113C080E090E0892B26
:100E3000A1F080E090E0892B81F00E9400008111F8
:100E40000AC008950E940000D9CF0E940000E1CF9F
:100E50000E940000EACF0C9400000895FC01848DEC
:100E6000DF01A80FB11DA35ABF4F2C91848D90E0D4
:100E700001968F739927848FA689B7892C93A089AF
:100E8000B1898C9180648C93938D848D981306C066
:100E90000288F389E02D80818F7D80830895CF9330
:100EA000DF93EC01888D8823C1F0EA89FB8980817A
:100EB00085FD05C0A889B9898C9186FD0EC00FB645
:100EC00007FCF5CF808185FFF2CFA889B9898C9185
:100ED00085FFEDCFCE01C2DFE8CFDF91CF9108953E
:100EE000CF92DF92FF920F931F93CF93DF931F92C6
:100EF000CDB7DEB76C0181E0D60158968C93589738
:100F00005B969C915B975C968C915C97981307C05D
:100F10005096ED91FC915197808185FD2DC0F60191
:100F2000038D10E00F5F1F4F0F731127F02EF60196
:100F3000848DF81210C00FB607FCF9CFD601509679
:100F4000ED91FC915197808185FFF1CFC6016983B6
:100F500085DF6981ECCF838DE80FF11DE35AFF4FE8
:100F60006083D6015B960C935B975296ED91FC9152
:100F70005397808180620CC0D6015696ED91FC910A
:100F8000579760835096ED91FC91519780818064D2
:100F9000808381E090E00F90DF91CF911F910F91BE
:100FA000FF90DF90CF900895BF92CF92DF92EF92A3
:100FB000FF92CF93DF93EC016A017B01B22EE889A7
:100FC000F98982E08083411581EE5807610571053A
:100FD00099F060E079E08DE390E0A701960198D464
:100FE0002150310941095109569547953795279563
:100FF000211580E1380790F0E889F989108260E8CE
:1010000074E88EE190E0A701960182D42150310965
:10101000410951095695479537952795EC85FD85EA
:101020003083EE85FF852083188EEC89FD89B082A0
:10103000EA89FB89808180618083EA89FB898081DC
:1010400088608083EA89FB89808180688083EA895F
:10105000FB8980818F7D8083DF91CF91FF90EF901E
:10106000DF90CF90BF900895CF93DF93EC01E8819C
:10107000F9810284F385E02D1995EA89FB89808145
:101080008F7E8083EA89FB898081877F8083EA89DC
:10109000FB8980818F778083EA89FB8980818F7DBE
:1010A00080838A8D898FDF91CF9108951F920F924F
:1010B0000FB60F9211240BB60F922F938F939F931D
:1010C000EF93FF93E0915404F09155048081E091F7
:1010D0005A04F0915B0482FD12C0908180915D04FE
:1010E0008F5F8F7320915E04821751F0E0915D0451
:1010F000F0E0EC5BFB4F958F80935D0401C0808135
:10110000FF91EF919F918F912F910F900BBE0F90B8
:101110000FBE0F901F9018951F920F920FB60F924F
:1011200011240BB60F922F933F934F935F936F93BE
:101130007F938F939F93AF93BF93EF93FF9384E439
:1011400094E08CDEFF91EF91BF91AF919F918F91D1
:101150007F916F915F914F913F912F910F900BBEB7
:101160000F900FBE0F901F90189584E494E00EDE50
:1011700021E0892B09F420E0822F08951092470482
:101180001092460488EE93E0A0E0B0E0809348041B
:1011900090934904A0934A04B0934B0488E992E0E9
:1011A000909345048093440485EC90E0909351041F
:1011B0008093500484EC90E0909353048093520405
:1011C00080EC90E0909355048093540481EC90E07F
:1011D000909357048093560482EC90E090935904C6
:1011E0008093580486EC90E090935B0480935A04BB
:1011F00010925D0410925E0410925F0410926004DD
:1012000008951F920F920FB60F9211240BB60F92F2
:101210002F938F939F93EF93FF93E091F104F091BD
:10122000F2048081E091F704F091F80482FD12C08D
:1012300090818091FA048F5F8F732091FB04821755
:1012400051F0E091FA04F0E0EF51FB4F958F80935D
:10125000FA0401C08081FF91EF919F918F912F91AE
:101260000F900BBE0F900FBE0F901F9018951F92FE
:101270000F920FB60F9211240BB60F922F933F933C
:101280004F935F936F937F938F939F93AF93BF938E
:10129000EF93FF9381EE94E0E1DDFF91EF91BF9139
:1012A000AF919F918F917F916F915F914F913F91FE
:1012B0002F910F900BBE0F900FBE0F901F9018959F
:1012C00081EE94E063DD21E0892B09F420E0822F98
:1012D00008951092E4041092E30488EE93E0A0E0F5
:1012E000B0E08093E5049093E604A093E704B09304
:1012F000E80488E992E09093E2048093E1048DECA5
:1013000090E09093EE048093ED048CEC90E0909349
:10131000F0048093EF0488EC90E09093F2048093C3
:10132000F10489EC90E09093F4048093F3048AEC48
:1013300090E09093F6048093F5048EEC90E0909307
:10134000F8048093F7041092FA041092FB041092B0
:10135000FC041092FD0408950895F5DBFDDF00D82C
:10136000C3EFD6E080D82097E9F33DDDFBCFCF92E5
:10137000DF92EF92FF920F931F93CF93DF937C0145
:101380006A01EB0100E010E00C151D0571F0699198
:10139000D701ED91FC910190F081E02DC7011995E5
:1013A000892B19F00F5F1F4FEFCFC801DF91CF914D
:1013B0001F910F91FF90EF90DF90CF9008956115EE
:1013C000710581F0DB010D900020E9F7AD0141507E
:1013D0005109461B570BDC01ED91FC910280F38112
:1013E000E02D199480E090E00895E9CF8F929F92CC
:1013F000AF92BF92DF92EF92FF920F931F93CF9322
:10140000DF93CDB7DEB7A1970FB6F894DEBF0FBE5E
:10141000CDBF7C01F42FD52ECB0119A2223008F4C8
:101420002AE08E010F5D1F4F822E912CA12CB12C32
:101430006F2F7D2DA50194016BD2F22FD32ECA01FF
:10144000015011096A3014F4E0E301C0E7E3E60F4C
:10145000D801EC93232B242B252B51F7B801C7017E
:10146000AEDFA1960FB6F894DEBF0FBECDBFDF9101
:10147000CF911F910F91FF90EF90DF90BF90AF90B1
:101480009F908F9008952115310541F4DC01ED9175
:10149000FC910190F081E02D642F1994A7CF9A015F
:1014A000462F50E060E070E0EECF0F931F93CF9394
:1014B000DF93EC01D7DA688779878A879B87E88191
:1014C000F9810680F781E02DCE01199597FF14C0B0
:1014D000C9DA088519852A853B85601B710B820B4B
:1014E000930B0C811D812E813F816017710782074C
:1014F000930728F38FEF9FEFDF91CF911F910F910B
:101500000895FC0144835583668377830895CF92C1
:10151000DF92EF92FF920F931F93CF93DF937C01A3
:101520006A01EB0100E010E00C151D0541F0C70158
:10153000BCDF97FD04C089930F5F1F4FF5CFC80133
:10154000DF91CF911F910F91FF90EF90DF90CF909F
:10155000089508955058BB27AA270ED038C129D125
:1015600030F02ED120F031F49F3F11F41EF41EC153
:101570000EF4E095E7FB14C1E92F3AD180F3BA17D6
:10158000620773078407950718F071F49EF552C13E
:101590000EF4E0950B2EBA2FA02D0B01B90190018E
:1015A0000C01CA01A0011124FF27591B99F0593FD2
:1015B00050F4503E68F11A16F040A22F232F342F1A
:1015C0004427585FF3CF469537952795A795F04068
:1015D0005395C9F77EF41F16BA0B620B730B840B7D
:1015E000BAF09150A1F0FF0FBB1F661F771F881F35
:1015F000C2F70EC0BA0F621F731F841F48F487958D
:1016000077956795B795F7959E3F08F0B3CF93957B
:10161000880F08F09927EE0F9795879508959CD02D
:1016200008F481E008950CD0D2C0CAD040F0C1D0F7
:1016300030F021F45F3F19F0B3C05111FCC0B6C0C7
:10164000D7D098F39923C9F35523B1F3951B550BC4
:10165000BB27AA2762177307840738F09F5F5F4F85
:10166000220F331F441FAA1FA9F333D00E2E3AF0C6
:10167000E0E830D091505040E695001CCAF729D0E0
:10168000FE2F27D0660F771F881FBB1F261737072F
:101690004807AB07B0E809F0BB0B802DBF01FF275F
:1016A00093585F4F2AF09E3F510568F079C0C3C040
:1016B0005F3FECF3983EDCF3869577956795B79599
:1016C000F7959F5FC9F7880F911D9695879597F9B4
:1016D0000895E1E0660F771F881FBB1F621773072D
:1016E0008407BA0720F0621B730B840BBA0BEE1F42
:1016F00088F7E095089504D06894B1119CC00895CE
:101700007FD088F09F5790F0B92F9927B751A0F05C
:10171000D1F0660F771F881F991F1AF0BA95C9F785
:1017200012C0B13081F086D0B1E0089583C0672F38
:10173000782F8827B85F39F0B93FCCF38695779535
:101740006795B395D9F73EF490958095709561951E
:101750007F4F8F4F9F4F0895990F0008550FAA0B89
:10176000E0E8FEEF16161706E807F907C0F01216B4
:101770001306E407F50798F0621B730B840B950BB7
:1017800039F40A2661F0232B242B252B21F408950C
:101790000A2609F4A140A6958FEF811D811D0895A9
:1017A00097F99F6780E870E060E008959FEF80EC14
:1017B000089500240A9416161706180609060895B7
:1017C00000240A9412161306140605060895092E1D
:1017D0000394000C11F4882352F0BB0F40F4BF2B8C
:1017E00011F460FF04C06F5F7F4F8F4F9F4F0895CC
:1017F00057FD9058440F551F59F05F3F71F04795C2
:10180000880F97FB991F61F09F3F79F087950895A6
:10181000121613061406551FF2CF4695F1DF08C0C5
:10182000161617061806991FF1CF869571056105E2
:1018300008940895E894BB2766277727CB0197F98A
:1018400008958ADF08F48FEF08950BD0C0CFB1DF81
:1018500028F0B6DF18F0952309F0A2CFA7CF112406
:10186000EACFC6DFA0F3959FD1F3950F50E0551F47
:10187000629FF001729FBB27F00DB11D639FAA27E5
:10188000F00DB11DAA1F649F6627B00DA11D661F34
:10189000829F2227B00DA11D621F739FB00DA11D55
:1018A000621F839FA00D611D221F749F3327A00D0F
:1018B000611D231F849F600D211D822F762F6A2FAB
:1018C00011249F5750408AF0E1F088234AF0EE0F30
:1018D000FF1FBB1F661F771F881F91505040A9F73D
:1018E0009E3F510570F05CCFA6CF5F3FECF3983E72
:1018F000DCF3869577956795B795F795E7959F5FA4
:10190000C1F7FE2B880F911D9695879597F908953D
:10191000A1E21A2EAA1BBB1BFD010DC0AA1FBB1FF3
:10192000EE1FFF1FA217B307E407F50720F0A21B65
:10193000B30BE40BF50B661F771F881F991F1A94D2
:1019400069F760957095809590959B01AC01BD01FC
:10195000CF010895EE0FFF1F0590F491E02D19942B
:0C1960000790F691E02D1994F894FFCF49
:10196C0000007E058000434D443A54582000434DFE
:10197C00443A525820005253503A54582000525373
:10198C00502E52582000564D4450565F317C315FDA
:10199C00564D4450560D0A0000000000564D445060
:1019AC00435F005F564D4450430D0A004572726F01
:1019BC00723A20417474656D707420746F20736575
:1019CC0074206120726561642D6F6E6C7920766174
:1019DC00726961626C65206F72206461746120743D
:1019EC00797065206E6F7420737570706F7274658A
:1019FC00640D0A00000000007007B709C606DF0678
:041A0C00D1064F07A9
:00000001FF
